:100000000C9457010C9488010C9488010C9488017D
:100010000C9488010C9488010C9488010C9488013C
:100020000C9488010C9488010C9488010C9488012C
:100030000C9488010C9488010C9488010C9488011C
:100040000C9488010C94D8090C9488010C948801B4
:100050000C9488010C9488010C9488010C94A408D9
:100060000C9488010C9418090C94EE080C948801E7
:100070000C9488010C9488010C9488010C948801DC
:100080000C94AA090C9488010C9488010C948801A2
:100090000C9488010C9488010C9488010C948801BC
:1000A0000C9488010C9488010C947C090C948801B0
:1000B0000C9488010C9488010C9488010C944E09CE
:1000C0000C9488010C9488010C9488010C9488018C
:1000D0000C9488010C9488010C9488010C9488017C
:1000E0000C9488010C94D1010C94D9070C942A0823
:1000F0000C94CD010C946F070C94E9010C94060A42
:100100000C94D5010C94BA010C9454080C94ED0194
:100110000C94FD020C94DB010C942E030C9405044A
:100120000C94D0020C94DF010C9494080C94640895
:100130000C94C9070C94AE010C940C030C94C701E9
:100140000C94B9070C94C3010C9489070C942003F8
:100150000C94BD010C94B3030C94A9070C94B20148
:100160000C94B0060C9499070C94E3010C9466036C
:100170000C94B6010C9444080C94E8010C94840887
:100180000C94A8010C9404040C9474080000210041
:10019000240027002A002D00300033000101000058
:1001A000040107010A0100002200250028002B009D
:1001B0002E003100340002010000050108010B018E
:1001C000000020002300260029002C002F00320010
:1001D00000010000030106010901050505050705E9
:1001E00008080808020202020A0A080804040404B3
:1001F00001010101010101010303030303030303DF
:10020000040707070C0C0C0C0C0C0C0C020202026D
:1002100006060606060606060B0B0B0B0B0B0B0B56
:100220000102102020080810204010204080020108
:1002300002010804020101020408102040808040ED
:1002400020100804020180040201804020100804EC
:10025000020108040201010204081020408001028A
:1002600004081020408000000A0B02090C0D0E0843
:10027000070304010000000000000000000000006F
:10028000000000000000000000000000000000006E
:10029000000012111000000000000000000000002B
:1002A000000000000000000000000000060A112409
:1002B0001FBECFEFD1E2DEBFCDBF00E00CBF12E02A
:1002C000A0E0B2E0E6E7F9E100E00BBF02C0079072
:1002D0000D92A639B107D9F724E0A6E9B2E001C032
:1002E0001D92AC35B207E1F711E0C7E5D1E000E0BF
:1002F00006C021970109802FFE010E94B10CC6356E
:10030000D10780E00807A9F70E941B0B0C94B90CD9
:100310000C9400008150823108F05AC0E82FF0E0C0
:100320008827EA56FE4F8F4F0C94B10CB601BA01E4
:10033000A801AE01B201E801BD01C301C701CD01B1
:10034000D101D501DB01DF01E801E301E901ED01A4
:10035000809180008F778093800008958091800045
:100360008F7DF9CF80918000877FF5CF84B58F771F
:1003700084BD089584B58F7DFBCF8091B0008F77C9
:100380008093B00008958091B0008F7DF9CF809167
:1003900090008F77809390000895809190008F7DDA
:1003A000F9CF80919000877FF5CF8091A0008F7763
:1003B0008093A00008958091A0008F7DF9CF809157
:1003C000A000877FF5CF809120018F778093200157
:1003D0000895809120018F7DF9CF80912001877F42
:1003E000F5CFCF93DF93282F30E0F901EA59FD4F85
:1003F0008491F901E05EFD4FD491F901E652FE4F80
:10040000C491CC23A1F081110E948A01EC2FF0E06D
:10041000EE0FFF1FE054FE4FA591B491EC91ED2338
:1004200081E090E009F480E0DF91CF91089580E0D1
:1004300090E0FACF1F93CF93DF93282F30E0F9019C
:10044000EA59FD4F8491F901E05EFD4FD491F90125
:10045000E652FE4FC491CC23A9F0162F81110E94C1
:100460008A01EC2FF0E0EE0FFF1FEA55FE4FA59139
:10047000B4918FB7F894EC91111108C0D095DE2398
:10048000DC938FBFDF91CF911F910895DE2BF8CFC2
:10049000CF93DF9390E0FC01E05EFD4F2491865204
:1004A0009E4FFC0184918823D1F090E0880F991F22
:1004B000FC01E457FE4FA591B491FC01EA55FE4FB3
:1004C000C591D49161110EC09FB7F8948C91E22F21
:1004D000E0958E238C932881E223E8839FBFDF91F0
:1004E000CF9108958FB7F894EC91E22BEC938FBFE6
:1004F000F6CF3FB7F8948091B7029091B802A091DF
:10050000B902B091BA0226B5A89B05C02F3F19F0D9
:100510000196A11DB11D3FBFBA2FA92F982F882783
:10052000BC01CD01620F711D811D911D42E0660F5E
:10053000771F881F991F4A95D1F708958F929F9230
:10054000AF92BF92CF92DF92EF92FF924B015C018C
:100550000E9479026B017C010E9479026C197D096D
:100560008E099F09683E734081059105A8F321E03B
:10057000821A9108A108B10888EEC80E83E0D81E3F
:10058000E11CF11C81149104A104B10429F7FF902E
:10059000EF90DF90CF90BF90AF909F908F90089595
:1005A000AF92BF92CF92DF92EF92FF920F931F9381
:1005B000CF93DF936C017B018B01040F151FEB01BF
:1005C0005E01AE18BF08C017D10759F06991D60176
:1005D000ED91FC910190F081E02DC6011995892BD8
:1005E00079F7C501DF91CF911F910F91FF90EF90A7
:1005F000DF90CF90BF90AF900895FC01538D448D54
:10060000252F30E0842F90E0821B930B541710F0BD
:10061000CF96089501970895FC01918D828D9817CA
:1006200061F0A28DAE0FBF2FB11D5D968C91928DA2
:100630009F5F9F73928F90E008958FEF9FEF0895D3
:10064000FC01918D828D981731F0828DE80FF11D9C
:10065000858D90E008958FEF9FEF0895FC01918DB7
:10066000228D892F90E0805C9F4F821B91098F73B0
:10067000992708958BEB92E00E942E0321E0892BAD
:1006800009F420E0822F0895FC01A48DA80FB92F52
:10069000B11DA35ABF4F2C91848D90E001968F73AA
:1006A0009927848FA689B7892C93A089B1898C91C9
:1006B000837080648C93938D848D981306C0028818
:1006C000F389E02D80818F7D80830895EF92FF92E2
:1006D0000F931F93CF93DF93EC0181E0888F9B8D65
:1006E0008C8D98131AC0E889F989808185FF15C01F
:1006F0009FB7F894EE89FF896083E889F989808142
:100700008370806480839FBF81E090E0DF91CF9110
:100710001F910F91FF90EF900895F62E0B8D10E032
:100720000F5F1F4F0F731127E02E8C8D8E110CC0A1
:100730000FB607FCFACFE889F989808185FFF5CFEC
:10074000CE010E944403F1CFEB8DEC0FFD2FF11D84
:10075000E35AFF4FF0829FB7F8940B8FEA89FB8929
:1007600080818062CFCFCF93DF93EC01888D882387
:10077000B9F0AA89BB89E889F9898C9185FD03C004
:10078000808186FD0DC00FB607FCF7CF8C9185FFE9
:10079000F2CF808185FFEDCFCE010E944403E9CFE7
:1007A000DF91CF91089580E090E0892B29F00E949D
:1007B0003A0381110E94000080E090E0892B49F00B
:1007C00080E090E0892B29F00E94000081110E94B6
:1007D000000080E090E0892B49F080E090E0892BD8
:1007E00029F00E94000081110E94000080E090E04A
:1007F000892B49F080E090E0892B29F00E940000CD
:1008000081110C9400000895089590E080E008950F
:10081000AF92BF92CF92DF92EF92FF920F931F930E
:10082000CF93DF936B017A01EC01C255DD4F288134
:100830003CE0389F8001399F100D1124A090E803FF
:10084000B12C27FF1FC0FB011182108288818F5FAE
:10085000888388819801280F311D87FD3A95F6011C
:100860002A153B051CF488818C30C4F1808191816C
:10087000049680349C4908F473C0F601808191810C
:10088000049670C088819801280F311D87FD3A9524
:100890002A153B05DCF68881A801480F511D87FD0C
:1008A0005A95FA01EE0FFF1FE40FF51FE85AFC4FAF
:1008B000808186FFCBCF8881F801E80FF11D87FD8D
:1008C000FA95CF01EE0FFF1FE80FF91FE85AFC4F12
:1008D000808160E08F730E941A02B8CF808191817D
:1008E0002881A801420F511D27FD5A959A01FA014E
:1008F000EE0FFF1FE20FF31FE85AFC4F21813281F8
:10090000820F931FF7019183808388819801280FBC
:10091000311D87FD3A95F901EE0FFF1FE20FF31F1E
:10092000E85AFC4F808186FF22C08881080F111D84
:1009300087FD1A95F801EE0FFF1FE00FF11FE85A2F
:10094000FC4F808161E08F73DF91CF911F910F91F8
:10095000FF90EF90DF90CF90BF90AF900C941A0271
:1009600080E49CE9F701918380838FEF8883DF9196
:10097000CF911F910F91FF90EF90DF90CF90BF909C
:10098000AF900895FF920F931F93CF93DF93CEE024
:10099000D0E0FC2E61E08C2F0E941A0202E110E0F0
:1009A000802F0E94F1010197C9F460E08F2D0E9411
:1009B0001A022E97CC0FDD1FCC0FDD1F025111093B
:1009C000C00FD11FCC0FDD1FC95FDD4F888199811A
:1009D000DF91CF911F910F91FF9008950F5F1F4FEF
:1009E00006311105E9F660E08F2D0E941A0221966A
:1009F000C231D10571F68FEF9FEFEACFCF92DF9230
:100A0000EF92FF920F931F93CF93DF931F921F924A
:100A1000CDB7DEB769834A83880F991F00913F04E1
:100A200010914004000F111FE9EEF3E09F01295ED1
:100A300033402017310714F41192F8CF2981FC01BB
:100A4000E751FC4F21838A81808360E080913D04DF
:100A50000E941A021016110604F501501109F8013E
:100A6000E751FC4FE080D0903B04C090390488E00F
:100A7000F82E6E2D661F6627661F8C2D0E941A02A7
:100A8000EE0C61E08D2D0E941A0260E08D2D0E9417
:100A90001A02FA94F110EDCFDDCF61E080913D04B0
:100AA0000F900F90DF91CF911F910F91FF90EF90DA
:100AB000DF90CF900C941A02CF93DF93EC0160E0AB
:100AC0008E810E941A0261E08E810E941A0260E00B
:100AD0008E810E941A028BE891E00197F1F7DF9175
:100AE000CF910895CF92DF92EF92FF920F931F93D1
:100AF000CF93DF936C017C0187E0E80EF11CD0E01E
:100B0000C0E0062F10E0B8010C2E02C07595679565
:100B10000A94E2F76170F70181917F010E941A0245
:100B20002196C430D10579F7C601DF91CF911F918D
:100B30000F91FF90EF90DF90CF900C945C05CF92D7
:100B4000DF92EF92FF920F931F93CF93DF93EC010D
:100B5000F62E642F8C810E941A028D818F3F19F02E
:100B600060E00E941A020F2D10E08F8584FF25C0DF
:100B70006E0187E0C80ED11CF12CE12CB8010E2CBF
:100B800002C0759567950A94E2F76170F60181914C
:100B90006F010E941A02FFEFEF1AFF0A88E0E816C1
:100BA000F10461F7CE01DF91CF911F910F91FF907A
:100BB000EF90DF90CF900C945C05B80184E07595C0
:100BC00067958A95E1F7CE010E9472056F2DCE01DF
:100BD000DF91CF911F910F91FF90EF90DF90CF9019
:100BE0000C94720540E0682F81E494E00C949F051A
:100BF00081E00E94F2058BE39FE10197F1F70895F0
:100C0000CF93DF93823029F49091500498609093B1
:100C10005004809354041092550480E48093560449
:100C200080E18093570480E58093580461E08091CF
:100C300045040E944802809146048F3F19F061E00C
:100C40000E94480261E0809147040E944802C1E48A
:100C5000D4E09E01215434408091500484FD0BC0A7
:100C600084E090E021962817390744F461E08E81F2
:100C70000E944802EECF88E090E0F4CF8BE39DE045
:100C80000197F1F760E0809145040E941A0260E04C
:100C9000809147040E941A02809146048F3F19F008
:100CA00060E00E941A028091500484FD34C063E029
:100CB00081E494E00E947205CBE4D6E4CE01019772
:100CC000F1F763E081E494E00E9472052197F1F767
:100CD00063E081E494E00E94720583E592E001976D
:100CE000F1F762E081E494E00E9472058091500483
:100CF00080620E94F20584E0809351048CE00E949F
:100D0000F2050E94F80582E08093520486E0DF91AC
:100D1000CF910C94F20580620E94F2058BE496E478
:100D20000197F1F78091500480620E94F20583E5FB
:100D300092E00197F1F78091500480620E94F205E1
:100D4000D5CF90915404691710F06FEF690FE62F1B
:100D5000F0E0EF5BFB4F9489890F80680C94F205FB
:100D600041E00E949F0581E090E00895FC01019020
:100D70000020E9F73197AF01481B590BBC0181E412
:100D800094E00C94D002CF92DF92EF92FF920F93F7
:100D90001F93CF93DF930E94F80560E080E00E94EC
:100DA000A10685E492E00E94B60668EE73E080E05A
:100DB00090E00E949E020E94F80560E080E00E94A0
:100DC000A10683E592E00E94B60661E080E00E9401
:100DD000A10604EA12E0C6E4D5E444E4F42E53E4A8
:100DE000E52E62E4D62E71E4C72E8AE00E94F1015E
:100DF0000197A1F564E071E080E090E00E949E021E
:100E00000E94F80560E080E00E94A10681E692E081
:100E10000E94B60661E080E00E94A10608E912E0A7
:100E2000C6E4D5E484E4F82E93E4E92E22E4D22E3D
:100E300031E4C32E8AE00E94F101019709F0C9C094
:100E400064E071E080E090E0DF91CF911F910F911D
:100E5000FF90EF90DF90CF900C949E028BE00E9469
:100E6000F1010197C9F48AE0F80111928A95E9F736
:100E70001092A3021092A20261E080E00E94A106FB
:100E80004AE050E060E772E081E494E00E94D00222
:100E900061E080E00E94A1060E94C204682FE82F52
:100EA000F92FE031F10508F0A0CF2091A202309196
:100EB000A3028827E15AF84F8F4F0C94B10C6F07AB
:100EC0006F076F076F076F076F076F076F076F0772
:100ED0006F0789079907A907B907C907D9072A30F2
:100EE000310509F482CF605DC90101969093A30298
:100EF0008093A2022C553D4FF901608381E494E078
:100F00000E94B00664E071E080E090E00E949E02E2
:100F10006CCF2A30310509F468CFC901019690934E
:100F2000A3028093A2022C553D4FF901C08261E4D7
:100F3000E5CF2A30310509F458CFC90101969093C5
:100F4000A3028093A2022C553D4FF901D08262E4A6
:100F5000D5CF2A30310509F448CFC90101969093C5
:100F6000A3028093A2022C553D4FF901E08263E475
:100F7000C5CF2A30310509F438CFC90101969093C5
:100F8000A3028093A2022C553D4FF901F08264E444
:100F9000B5CF2A30310509F428CFC90101969093C5
:100FA000A3028093A2022C553D4FF901D08365E442
:100FB000A5CF2A30310509F418CFC90101969093C5
:100FC000A3028093A2022C553D4FF901C08366E431
:100FD00095CF8BE00E94F1010197C9F48AE0F801F6
:100FE00011928A95E9F7109297021092960261E0A9
:100FF00080E00E94A1064AE050E060E772E081E4F0
:1010000094E00E94D00261E080E00E94A1060E946C
:10101000C204682FE82FF92FE031F10508F00ACF5C
:1010200020919602309197028827E65EF74F8F4F06
:101030000C94B10C2A082A082A082A082A082A0827
:101040002A082A082A082A08440854086408740848
:10105000840894082A30310509F4ECCE605DC9019A
:101060000196909397028093960228563D4FF9017E
:10107000608381E494E00E94B00664E071E080E067
:1010800090E00E949E02D6CE2A30310509F4D2CEDD
:10109000C9010196909397028093960228563D4F7E
:1010A000F901C08261E4E5CF2A30310509F4C2CEEE
:1010B000C9010196909397028093960228563D4F5E
:1010C000F901D08262E4D5CF2A30310509F4B2CEDD
:1010D000C9010196909397028093960228563D4F3E
:1010E000F901E08263E4C5CF2A30310509F4A2CECC
:1010F000C9010196909397028093960228563D4F1E
:10110000F901F08264E4B5CF2A30310509F492CEBA
:10111000C9010196909397028093960228563D4FFD
:10112000F901D08365E4A5CF2A30310509F482CED8
:10113000C9010196909397028093960228563D4FDD
:10114000F901C08366E495CF1F920F920FB60F92FC
:1011500011242F933F938F939F93AF93BF938091CD
:10116000B3029091B402A091B502B091B602309151
:10117000B20223E0230F2D3758F50196A11DB11DB2
:101180002093B2028093B3029093B402A093B5026D
:10119000B093B6028091B7029091B802A091B902C3
:1011A000B091BA020196A11DB11D8093B702909330
:1011B000B802A093B902B093BA02BF91AF919F91C8
:1011C0008F913F912F910F900FBE0F901F90189508
:1011D00026E8230F0296A11DB11DD2CF1F920F92B8
:1011E0000FB60F9211240BB60F922F933F934F938C
:1011F0005F936F937F938F939F93AF93BF93EF937F
:10120000FF938BEB92E00E944403FF91EF91BF911B
:10121000AF919F918F917F916F915F914F913F918E
:101220002F910F900BBE0F900FBE0F901F9018952F
:101230001F920F920FB60F9211240BB60F922F939D
:101240008F939F93EF93FF93E091CB02F091CC02A9
:101250008081E091D102F091D20282FD1DC0908187
:101260008091D4028F5F8F732091D502821741F055
:10127000E091D402F0E0E554FD4F958F8093D402C5
:10128000FF91EF919F918F912F910F900BBE0F9037
:101290000FBE0F901F9018958081F2CF1F920F9272
:1012A0000FB60F9211240BB60F922F933F934F93CB
:1012B0005F936F937F938F939F93AF93BF93EF93BE
:1012C000FF9348E251E064E271E090E080E00E9428
:1012D0000804FF91EF91BF91AF919F918F917F9102
:1012E0006F915F914F913F912F910F900BBE0F9097
:1012F0000FBE0F901F9018951F920F920FB60F926E
:1013000011240BB60F922F933F934F935F936F93DC
:101310007F938F939F93AF93BF93EF93FF9348EA8D
:1013200050E064EA70E083E090E00E940804FF91DE
:10133000EF91BF91AF919F918F917F916F915F914D
:101340004F913F912F910F900BBE0F900FBE0F90BA
:101350001F9018951F920F920FB60F9211240BB683
:101360000F922F933F934F935F936F937F938F933E
:101370009F93AF93BF93EF93FF9348E950E064E9E5
:1013800070E082E090E00E940804FF91EF91BF912D
:10139000AF919F918F917F916F915F914F913F910D
:1013A0002F910F900BBE0F900FBE0F901F901895AE
:1013B0001F920F920FB60F9211240BB60F922F931C
:1013C0003F934F935F936F937F938F939F93AF93CD
:1013D000BF93EF93FF9348E850E064E870E081E04A
:1013E00090E00E940804FF91EF91BF91AF919F910F
:1013F0008F917F916F915F914F913F912F910F90BE
:101400000BBE0F900FBE0F901F901895EF92FF929A
:101410001F93CF93DF931092BE021092BD0288EE0D
:1014200093E0A0E0B0E08093BF029093C002A0934D
:10143000C102B093C2028BE292E09093BC0280930F
:10144000BB0285EC90E09093C8028093C70284ECC5
:1014500090E09093CA028093C90280EC90E0909350
:10146000CC028093CB0281EC90E09093CE028093EB
:10147000CD0282EC90E09093D0028093CF0286EC74
:1014800090E09093D2028093D1021092D4021092F5
:10149000D5021092D6021092D7028091E8038033D1
:1014A00008F0BFC091E0980F9093E803809359042F
:1014B00090E0FC01EE0FFF1FE80FF91FE85AFC4F08
:1014C00088EB9BE092838183109244041092430442
:1014D0008DE392E090934204809341048BE18093EA
:1014E00045048FEF809346048AE18093470482E0AD
:1014F0008093480483E08093490484E080934A0405
:1015000085E080934B0410924C0410924D0410928D
:101510004E0410924F041092500481E00E94000685
:10152000C6E0D0E0D0933A04C093390487E090E05D
:1015300090933C0480933B0488E090E090933E04B9
:1015400080933D0481E090E09093400480933F04B9
:1015500061E086E00E94480261E080913B040E94C5
:10156000480261E080913D040E94480261E0809160
:101570003D040E941A02D0933A04C0933904E9EF63
:10158000F3E0119224E0E933F207D9F7D0E0C0E0AC
:1015900080913F0490914004C817D9070CF045C0D2
:1015A00040E06FE0CE010E94FE0480913F049091E4
:1015B0004004C817D9072CF447E06BE0CE010E9425
:1015C000FE0440E069E0CE010E94FE0480913F04E9
:1015D00090914004C817D907B4F4CE0123E0880FD6
:1015E000991F2A95E1F7FC01E750FC4F7F0111E0BC
:1015F000F70111927F0140E0612FCE010E94FE04AD
:101600001F5F1930A9F780913F0490914004C817DB
:10161000D9072CF440E06CE0CE010E94FE04219634
:10162000B7CF8FEF809359044FCFDF91CF911F91A8
:10163000FF90EF900895789484B5826084BD84B55E
:10164000816084BD85B5826085BD85B5816085BDBD
:1016500080916E00816080936E0010928100809175
:1016600081008260809381008091810081608093FD
:101670008100809180008160809380008091B10022
:1016800084608093B1008091B00081608093B0004D
:10169000809191008260809391008091910081609F
:1016A0008093910080919000816080939000809160
:1016B000A10082608093A1008091A100816080934D
:1016C000A1008091A00081608093A0008091210101
:1016D00082608093210180912101816080932101AA
:1016E0008091200181608093200180917A00846044
:1016F00080937A0080917A00826080937A00809152
:101700007A00816080937A0080917A00806880936B
:101710007A001092C100E091CB02F091CC0282E0FD
:101720008083E091C702F091C8021082E091C90263
:10173000F091CA028FEC80831092D302E091CF0225
:10174000F091D00286E08083E091CD02F091CE024C
:10175000808180618083E091CD02F091CE02808112
:1017600088608083E091CD02F091CE028081806814
:101770008083E091CD02F091CE0280818F7D8083C5
:1017800082E00E94000680915904803308F052C024
:1017900061E089E00E94480280915904282F30E0DE
:1017A000F901EE0FFF1FE20FF31FE85AFC4F908183
:1017B000907C9960908310925A0410925B042CE004
:1017C000622F0E94A50C829FB001112430E020E01E
:1017D000AB01420F531FFA01EE0FFF1FE40FF51F7D
:1017E000E85AFC4F908196FD17C02F5F3F4F2C3079
:1017F000310571F7813009F07CC01092800082E0E1
:10180000809381001092850010928400B19A80919B
:101810006F00826080936F00E09159048E2F90E0FA
:10182000FC01EE0FFF1FE80FF91FE85AFC4F808103
:101830008064808361E086E10E94480261E087E184
:101840000E94480261E088E10E94480261E089E16B
:101850000E944802CEE061E08C2F0E944802CF5FD8
:10186000C231C9F760E08C2F0E944802CF5FC631B9
:10187000C9F70E94F80588E40E94F205C0E0D2E0B2
:10188000699181E494E00E94B00682E0C830D807F4
:10189000B9F760E080E00E94A10661E081E494E095
:1018A0000E94B00660E082E00E94A1068BE792E011
:1018B0000E94B60660E08DE00E94A10661E081E42E
:1018C00094E00E94B00661E080E00E94A10686E8F4
:1018D00092E00E94B6068AE00E94F1010197D9F7D2
:1018E0006CE271E080E090E00E949E020E94C306DC
:1018F000F2CF823061F410929000809391001092A8
:1019000095001092940088BB8093710085CF83303E
:1019100069F41092A00082E08093A1001092A500CB
:101920001092A40089BB8093720076CF811174CF8E
:101930001092200182E080932101109225011092E3
:1019400024018ABB8093730067CF991B79E004C0A0
:10195000991F961708F0961B881F7A95C9F78095EE
:101960000895EE0FFF1F881F8BBF0790F691E02DA3
:061970001994F894FFCF6A
:1019760004160D060D16040700080009000C0004E5
:1019860000050006000D000100020003000E000A1B
:101996000000000B000F00000000006603D002FDEF
:1019A60002B3032E030C03200300000000B006D090
:1019B6000205040404496E6963696F2053657369FF
:1019C6006F6E00496E67726573652061706F646F34
:1019D60000496E677265736520636F6E747261008D
:1019E60020202020202020202020004269656E76BD
:1019F600656E69646F0047525020313120202020E7
:061A06005345432041009E
:00000001FF
