:100000000C9457010C9488010C9488010C9488017D
:100010000C9488010C9488010C9488010C9488013C
:100020000C9488010C9488010C9488010C9488012C
:100030000C9488010C9488010C9488010C9488011C
:100040000C9488010C94CF090C9488010C948801BD
:100050000C9488010C9488010C9488010C949B08E2
:100060000C9488010C940F090C94E5080C948801F9
:100070000C9488010C9488010C9488010C948801DC
:100080000C94A1090C9488010C9488010C948801AB
:100090000C9488010C9488010C9488010C948801BC
:1000A0000C9488010C9488010C9473090C948801B9
:1000B0000C9488010C9488010C9488010C944509D7
:1000C0000C9488010C9488010C9488010C9488018C
:1000D0000C9488010C9488010C9488010C9488017C
:1000E0000C9488010C94D1010C946E080C94AA070E
:1000F0000C9441080C94CD010C949A070C94E901DE
:100100000C947D080C94FD090C94D5010C94BA0153
:100110000C948C080C94ED010C94FD020C94DB0102
:100120000C948A070C942E030C9405040C94D002B2
:100130000C94DF010C94AE010C940C030C94BA07E0
:100140000C94C7010C94C3010C94CA070C942003AF
:100150000C9470070C94BD010C94B3030C94B20181
:100160000C94B0060C9427080C94E3010C945008EE
:100170000C9466030C945F080C94DA070C94B60197
:100180000C94E8010C94A8010C94040400002100D4
:10019000240027002A002D00300033000101000058
:1001A000040107010A0100002200250028002B009D
:1001B0002E003100340002010000050108010B018E
:1001C000000020002300260029002C002F00320010
:1001D00000010000030106010901050505050705E9
:1001E00008080808020202020A0A080804040404B3
:1001F00001010101010101010303030303030303DF
:10020000040707070C0C0C0C0C0C0C0C020202026D
:1002100006060606060606060B0B0B0B0B0B0B0B56
:100220000102102020080810204010204080020108
:1002300002010804020101020408102040808040ED
:1002400020100804020180040201804020100804EC
:10025000020108040201010204081020408001028A
:1002600004081020408000000A0B02090C0D0E0843
:10027000070304010000000000000000000000006F
:10028000000000000000000000000000000000006E
:10029000000012111000000000000000000000002B
:1002A000000000000000000000000000FD09112413
:1002B0001FBECFEFD1E2DEBFCDBF00E00CBF12E02A
:1002C000A0E0B2E0E4E6F9E100E00BBF02C0079075
:1002D0000D92A839B107D9F724E0A8E9B2E001C02E
:1002E0001D92AE35B207E1F711E0C7E5D1E000E0BD
:1002F00006C021970109802FFE010E94A80CC63577
:10030000D10780E00807A9F70E94120B0C94B00CEB
:100310000C9400008150823108F05AC0E82FF0E0C0
:100320008827EA56FE4F8F4F0C94A80CB601BA01ED
:10033000A801AE01B201E801BD01C301C701CD01B1
:10034000D101D501DB01DF01E801E301E901ED01A4
:10035000809180008F778093800008958091800045
:100360008F7DF9CF80918000877FF5CF84B58F771F
:1003700084BD089584B58F7DFBCF8091B0008F77C9
:100380008093B00008958091B0008F7DF9CF809167
:1003900090008F77809390000895809190008F7DDA
:1003A000F9CF80919000877FF5CF8091A0008F7763
:1003B0008093A00008958091A0008F7DF9CF809157
:1003C000A000877FF5CF809120018F778093200157
:1003D0000895809120018F7DF9CF80912001877F42
:1003E000F5CFCF93DF93282F30E0F901EA59FD4F85
:1003F0008491F901E05EFD4FD491F901E652FE4F80
:10040000C491CC23A1F081110E948A01EC2FF0E06D
:10041000EE0FFF1FE054FE4FA591B491EC91ED2338
:1004200081E090E009F480E0DF91CF91089580E0D1
:1004300090E0FACF1F93CF93DF93282F30E0F9019C
:10044000EA59FD4F8491F901E05EFD4FD491F90125
:10045000E652FE4FC491CC23A9F0162F81110E94C1
:100460008A01EC2FF0E0EE0FFF1FEA55FE4FA59139
:10047000B4918FB7F894EC91111108C0D095DE2398
:10048000DC938FBFDF91CF911F910895DE2BF8CFC2
:10049000CF93DF9390E0FC01E05EFD4F2491865204
:1004A0009E4FFC0184918823D1F090E0880F991F22
:1004B000FC01E457FE4FA591B491FC01EA55FE4FB3
:1004C000C591D49161110EC09FB7F8948C91E22F21
:1004D000E0958E238C932881E223E8839FBFDF91F0
:1004E000CF9108958FB7F894EC91E22BEC938FBFE6
:1004F000F6CF3FB7F8948091B9029091BA02A091DB
:10050000BB02B091BC0226B5A89B05C02F3F19F0D5
:100510000196A11DB11D3FBFBA2FA92F982F882783
:10052000BC01CD01620F711D811D911D42E0660F5E
:10053000771F881F991F4A95D1F708958F929F9230
:10054000AF92BF92CF92DF92EF92FF924B015C018C
:100550000E9479026B017C010E9479026C197D096D
:100560008E099F09683E734081059105A8F321E03B
:10057000821A9108A108B10888EEC80E83E0D81E3F
:10058000E11CF11C81149104A104B10429F7FF902E
:10059000EF90DF90CF90BF90AF909F908F90089595
:1005A000AF92BF92CF92DF92EF92FF920F931F9381
:1005B000CF93DF936C017B018B01040F151FEB01BF
:1005C0005E01AE18BF08C017D10759F06991D60176
:1005D000ED91FC910190F081E02DC6011995892BD8
:1005E00079F7C501DF91CF911F910F91FF90EF90A7
:1005F000DF90CF90BF90AF900895FC01538D448D54
:10060000252F30E0842F90E0821B930B541710F0BD
:10061000CF96089501970895FC01918D828D9817CA
:1006200061F0A28DAE0FBF2FB11D5D968C91928DA2
:100630009F5F9F73928F90E008958FEF9FEF0895D3
:10064000FC01918D828D981731F0828DE80FF11D9C
:10065000858D90E008958FEF9FEF0895FC01918DB7
:10066000228D892F90E0805C9F4F821B91098F73B0
:10067000992708958DEB92E00E942E0321E0892BAB
:1006800009F420E0822F0895FC01A48DA80FB92F52
:10069000B11DA35ABF4F2C91848D90E001968F73AA
:1006A0009927848FA689B7892C93A089B1898C91C9
:1006B000837080648C93938D848D981306C0028818
:1006C000F389E02D80818F7D80830895EF92FF92E2
:1006D0000F931F93CF93DF93EC0181E0888F9B8D65
:1006E0008C8D98131AC0E889F989808185FF15C01F
:1006F0009FB7F894EE89FF896083E889F989808142
:100700008370806480839FBF81E090E0DF91CF9110
:100710001F910F91FF90EF900895F62E0B8D10E032
:100720000F5F1F4F0F731127E02E8C8D8E110CC0A1
:100730000FB607FCFACFE889F989808185FFF5CFEC
:10074000CE010E944403F1CFEB8DEC0FFD2FF11D84
:10075000E35AFF4FF0829FB7F8940B8FEA89FB8929
:1007600080818062CFCFCF93DF93EC01888D882387
:10077000B9F0AA89BB89E889F9898C9185FD03C004
:10078000808186FD0DC00FB607FCF7CF8C9185FFE9
:10079000F2CF808185FFEDCFCE010E944403E9CFE7
:1007A000DF91CF91089580E090E0892B29F00E949D
:1007B0003A0381110E94000080E090E0892B49F00B
:1007C00080E090E0892B29F00E94000081110E94B6
:1007D000000080E090E0892B49F080E090E0892BD8
:1007E00029F00E94000081110E94000080E090E04A
:1007F000892B49F080E090E0892B29F00E940000CD
:1008000081110C9400000895089590E080E008950F
:10081000AF92BF92CF92DF92EF92FF920F931F930E
:10082000CF93DF936B017A01EC01C055DD4F288136
:100830003CE0389F8001399F100D1124A090EA03FD
:10084000B12C27FF1FC0FB011182108288818F5FAE
:10085000888388819801280F311D87FD3A95F6011C
:100860002A153B051CF488818C30C4F1808191816C
:10087000049680349C4908F473C0F601808191810C
:10088000049670C088819801280F311D87FD3A9524
:100890002A153B05DCF68881A801480F511D87FD0C
:1008A0005A95FA01EE0FFF1FE40FF51FE65AFC4FB1
:1008B000808186FFCBCF8881F801E80FF11D87FD8D
:1008C000FA95CF01EE0FFF1FE80FF91FE65AFC4F14
:1008D000808160E08F730E941A02B8CF808191817D
:1008E0002881A801420F511D27FD5A959A01FA014E
:1008F000EE0FFF1FE20FF31FE65AFC4F21813281FA
:10090000820F931FF7019183808388819801280FBC
:10091000311D87FD3A95F901EE0FFF1FE20FF31F1E
:10092000E65AFC4F808186FF22C08881080F111D86
:1009300087FD1A95F801EE0FFF1FE00FF11FE65A31
:10094000FC4F808161E08F73DF91CF911F910F91F8
:10095000FF90EF90DF90CF90BF90AF900C941A0271
:1009600080E49CE9F701918380838FEF8883DF9196
:10097000CF911F910F91FF90EF90DF90CF90BF909C
:10098000AF900895FF920F931F93CF93DF93CEE024
:10099000D0E0FC2E61E08C2F0E941A0202E110E0F0
:1009A000802F0E94F1010197C9F460E08F2D0E9411
:1009B0001A022E97CC0FDD1FCC0FDD1F025111093B
:1009C000C00FD11FCC0FDD1FC95FDD4F888199811A
:1009D000DF91CF911F910F91FF9008950F5F1F4FEF
:1009E00006311105E9F660E08F2D0E941A0221966A
:1009F000C231D10571F68FEF9FEFEACFCF92DF9230
:100A0000EF92FF920F931F93CF93DF931F921F924A
:100A1000CDB7DEB769834A83880F991F00914104DF
:100A200010914204000F111FEBEEF3E09F012B5ECB
:100A300033402017310714F41192F8CF2981FC01BB
:100A4000E551FC4F21838A81808360E080913F04DF
:100A50000E941A021016110604F501501109F8013E
:100A6000E551FC4FE080D0903D04C0903B0488E00D
:100A7000F82E6E2D661F6627661F8C2D0E941A02A7
:100A8000EE0C61E08D2D0E941A0260E08D2D0E9417
:100A90001A02FA94F110EDCFDDCF61E080913F04AE
:100AA0000F900F90DF91CF911F910F91FF90EF90DA
:100AB000DF90CF900C941A02CF93DF93EC0160E0AB
:100AC0008E810E941A0261E08E810E941A0260E00B
:100AD0008E810E941A028BE891E00197F1F7DF9175
:100AE000CF910895CF92DF92EF92FF920F931F93D1
:100AF000CF93DF936C017C0187E0E80EF11CD0E01E
:100B0000C0E0062F10E0B8010C2E02C07595679565
:100B10000A94E2F76170F70181917F010E941A0245
:100B20002196C430D10579F7C601DF91CF911F918D
:100B30000F91FF90EF90DF90CF900C945C05CF92D7
:100B4000DF92EF92FF920F931F93CF93DF93EC010D
:100B5000F62E642F8C810E941A028D818F3F19F02E
:100B600060E00E941A020F2D10E08F8584FF25C0DF
:100B70006E0187E0C80ED11CF12CE12CB8010E2CBF
:100B800002C0759567950A94E2F76170F60181914C
:100B90006F010E941A02FFEFEF1AFF0A88E0E816C1
:100BA000F10461F7CE01DF91CF911F910F91FF907A
:100BB000EF90DF90CF900C945C05B80184E07595C0
:100BC00067958A95E1F7CE010E9472056F2DCE01DF
:100BD000DF91CF911F910F91FF90EF90DF90CF9019
:100BE0000C94720540E0682F83E494E00C949F0518
:100BF00081E00E94F2058BE39FE10197F1F70895F0
:100C0000CF93DF93823029F49091520498609093AF
:100C10005204809356041092570480E48093580441
:100C200080E18093590480E580935A0461E08091CB
:100C300047040E944802809148048F3F19F061E008
:100C40000E94480261E0809149040E944802C3E486
:100C5000D4E09E01235434408091520484FD0BC0A3
:100C600084E090E021962817390744F461E08E81F2
:100C70000E944802EECF88E090E0F4CF8BE39DE045
:100C80000197F1F760E0809147040E941A0260E04A
:100C9000809149040E941A02809148048F3F19F004
:100CA00060E00E941A028091520484FD34C063E027
:100CB00083E494E00E947205CBE4D6E4CE01019770
:100CC000F1F763E083E494E00E9472052197F1F765
:100CD00063E083E494E00E94720583E592E001976B
:100CE000F1F762E083E494E00E947205809152047F
:100CF00080620E94F20584E0809353048CE00E949D
:100D0000F2050E94F80582E08093540486E0DF91AA
:100D1000CF910C94F20580620E94F2058BE496E478
:100D20000197F1F78091520480620E94F20583E5F9
:100D300092E00197F1F78091520480620E94F205DF
:100D4000D5CF90915604691710F06FEF690FE62F19
:100D5000F0E0ED5BFB4F9489890F80680C94F205FD
:100D600041E00E949F0581E090E00895FC01019020
:100D70000020E9F73197AF01481B590BBC0183E410
:100D800094E00C94D002CF92DF92EF92FF920F93F7
:100D90001F93CF93DF930E94F80560E080E00E94EC
:100DA000A10685E492E00E94B60664EF71E080E05F
:100DB00090E00E949E020E94F80560E080E00E94A0
:100DC000A10683E592E00E94B60661E080E00E9401
:100DD000A10606EA12E0C6E4D5E444E4F42E53E4A6
:100DE000E52E62E4D62E71E4C72E8AE00E94F1015E
:100DF0000197C9F564E071E080E090E00E949E02F6
:100E00000E94F80560E080E00E94A10681E692E081
:100E10000E94B60661E080E00E94A10608E912E0A7
:100E2000C6E4D5E484E4F82E93E4E92E22E4D22E3D
:100E300031E4C32E8AE00E94F101019709F0CAC093
:100E400064E071E080E090E00E949E021092A302B4
:100E50001092A202DF91CF911F910F91FF90EF901E
:100E6000DF90CF9008958BE00E94F1010197A9F4E3
:100E70008AE0F80111928A95E9F71092A502109282
:100E8000A40261E080E00E94A10680E792E00E9457
:100E9000B60661E080E00E94A1060E94C204682FAD
:100EA000E82FF92FE031F10508F09FCF2091A4023F
:100EB0003091A5028827E05AF84F8F4F0C94A80C68
:100EC000700770077007700770077007700770076A
:100ED000700770078A079A07AA07BA07CA07DA07CE
:100EE0002A30310509F481CF605DC90101969093E4
:100EF000A5028093A4022A553D4FF901608383E443
:100F000094E00E94B00664E071E080E090E00E940E
:100F10009E026BCF2A30310509F467CFC9010196D3
:100F20009093A5028093A4022A553D4FF901C082F7
:100F300061E4E5CF2A30310509F457CFC9010196A4
:100F40009093A5028093A4022A553D4FF901D082C7
:100F500062E4D5CF2A30310509F447CFC9010196A3
:100F60009093A5028093A4022A553D4FF901E08297
:100F700063E4C5CF2A30310509F437CFC9010196A2
:100F80009093A5028093A4022A553D4FF901F08267
:100F900064E4B5CF2A30310509F427CFC9010196A1
:100FA0009093A5028093A4022A553D4FF901D08366
:100FB00065E4A5CF2A30310509F417CFC9010196A0
:100FC0009093A5028093A4022A553D4FF901C08356
:100FD00066E495CF8BE00E94F1010197A9F48AE0C5
:100FE000F80111928A95E9F71092A3021092A202D9
:100FF00061E080E00E94A10680E792E00E94B606D0
:1010000061E080E00E94A1060E94C204482FE82F00
:10101000F92FE031F10508F00DCF2091A2023091B7
:10102000A3028827E95EF74F8F4F0C94A80C27087E
:101030002708270827082708270827082708270838
:101040002708410850085F086E087D088C082A3080
:10105000310509F4EFCEC90101969093A302809364
:10106000A20228563D4F405DF90140838BE792E094
:101070000E94B60664E071E080E090E00E949E026B
:10108000D9CE2A30310509F4D5CEC9010196909305
:10109000A3028093A20228563D4FF901C082E6CFF9
:1010A0002A30310509F4C6CEC90101969093A302F6
:1010B0008093A20228563D4FF901D082D7CF2A3023
:1010C000310509F4B7CEC90101969093A30280932C
:1010D000A20228563D4FF901E082C8CF2A303105DF
:1010E00009F4A8CEC90101969093A3028093A202AD
:1010F00028563D4FF901F082B9CF2A30310509F465
:1011000099CEC90101969093A3028093A20228561A
:101110003D4FF901D083AACF2A30310509F48ACE98
:10112000C90101969093A3028093A20228563D4FD5
:10113000F901C0839BCF1F920F920FB60F9211241B
:101140002F933F938F939F93AF93BF938091B5025B
:101150009091B602A091B702B091B8023091B4025A
:1011600023E0230F2D3758F50196A11DB11D2093C3
:10117000B4028093B5029093B602A093B702B093E5
:10118000B8028091B9029091BA02A091BB02B091CD
:10119000BC020196A11DB11D8093B9029093BA02C1
:1011A000A093BB02B093BC02BF91AF919F918F916E
:1011B0003F912F910F900FBE0F901F90189526E82A
:1011C000230F0296A11DB11DD2CF1F920F920FB611
:1011D0000F9211240BB60F922F933F934F935F936F
:1011E0006F937F938F939F93AF93BF93EF93FF93EF
:1011F0008DEB92E00E944403FF91EF91BF91AF917C
:101200009F918F917F916F915F914F913F912F911E
:101210000F900BBE0F900FBE0F901F9018951F924E
:101220000F920FB60F9211240BB60F922F938F933C
:101230009F93EF93FF93E091CD02F091CE028081D6
:10124000E091D302F091D40282FD1DC09081809183
:10125000D6028F5F8F732091D702821741F0E09101
:10126000D602F0E0E354FD4F958F8093D602FF91B4
:10127000EF919F918F912F910F900BBE0F900FBE0A
:101280000F901F9018958081F2CF1F920F920FB68A
:101290000F9211240BB60F922F933F934F935F93AE
:1012A0006F937F938F939F93AF93BF93EF93FF932E
:1012B00048E251E064E271E090E080E00E940804BE
:1012C000FF91EF91BF91AF919F918F917F916F911E
:1012D0005F914F913F912F910F900BBE0F900FBEDA
:1012E0000F901F9018951F920F920FB60F92112416
:1012F0000BB60F922F933F934F935F936F937F9310
:101300008F939F93AF93BF93EF93FF9348EA50E07F
:1013100064EA70E083E090E00E940804FF91EF919E
:10132000BF91AF919F918F917F916F915F914F91FD
:101330003F912F910F900BBE0F900FBE0F901F90FB
:1013400018951F920F920FB60F9211240BB60F92A1
:101350002F933F934F935F936F937F938F939F93BD
:10136000AF93BF93EF93FF9348E950E064E970E0D7
:1013700082E090E00E940804FF91EF91BF91AF914D
:101380009F918F917F916F915F914F913F912F919D
:101390000F900BBE0F900FBE0F901F9018951F92CD
:1013A0000F920FB60F9211240BB60F922F933F930B
:1013B0004F935F936F937F938F939F93AF93BF935D
:1013C000EF93FF9348E850E064E870E081E090E03C
:1013D0000E940804FF91EF91BF91AF919F918F916F
:1013E0007F916F915F914F913F912F910F900BBE25
:1013F0000F900FBE0F901F901895EF92FF921F93C2
:10140000CF93DF931092C0021092BF0288EE93E058
:10141000A0E0B0E08093C1029093C202A093C30207
:10142000B093C4028BE292E09093BE028093BD021F
:1014300085EC90E09093CA028093C90284EC90E01E
:101440009093CC028093CB0280EC90E09093CE02FC
:101450008093CD0281EC90E09093D0028093CF02F4
:1014600082EC90E09093D2028093D10286EC90E0DF
:101470009093D4028093D3021092D6021092D70296
:101480001092D8021092D9028091EA03803308F0BA
:10149000BFC091E0980F9093EA0380935B0490E0C3
:1014A000FC01EE0FFF1FE80FF91FE65AFC4F88EB17
:1014B0009BE09283818310924604109245048DE351
:1014C00092E090934404809343048BE1809347041B
:1014D0008FEF809348048AE18093490482E08093EF
:1014E0004A0483E080934B0484E080934C0485E0BD
:1014F00080934D0410924E0410924F0410925004A9
:10150000109251041092520481E00E940006C6E03D
:10151000D0E0D0933C04C0933B0487E090E09093EC
:101520003E0480933D0488E090E0909340048093D3
:101530003F0481E090E0909342048093410461E095
:1015400086E00E94480261E080913D040E944802CA
:1015500061E080913F040E94480261E080913F0475
:101560000E941A02D0933C04C0933B04EBEFF3E0DB
:10157000119224E0EB33F207D9F7D0E0C0E080917C
:10158000410490914204C817D9070CF045C040E0CF
:101590006FE0CE010E94FE048091410490914204CC
:1015A000C817D9072CF447E06BE0CE010E94FE0477
:1015B00040E069E0CE010E94FE04809141049091D8
:1015C0004204C817D907B4F4CE0123E0880F991F4D
:1015D0002A95E1F7FC01E550FC4F7F0111E0F7018E
:1015E00011927F0140E0612FCE010E94FE041F5F37
:1015F0001930A9F78091410490914204C817D90786
:101600002CF440E06CE0CE010E94FE042196B7CF9E
:101610008FEF80935B044FCFDF91CF911F91FF90AD
:10162000EF900895789484B5826084BD84B581601C
:1016300084BD85B5826085BD85B5816085BD80919D
:101640006E00816080936E00109281008091810015
:10165000826080938100809181008160809381000D
:10166000809180008160809380008091B1008460CF
:101670008093B1008091B00081608093B000809130
:1016800091008260809391008091910081608093AD
:101690009100809190008160809390008091A100E2
:1016A00082608093A1008091A10081608093A1005D
:1016B0008091A00081608093A000809121018260D0
:1016C000809321018091210181608093210180918B
:1016D000200181608093200180917A008460809352
:1016E0007A0080917A00826080937A0080917A00FB
:1016F000816080937A0080917A00806880937A007C
:101700001092C100E091CD02F091CE0282E0808380
:10171000E091C902F091CA021082E091CB02F091EF
:10172000CC028FEC80831092D502E091D102F0912F
:10173000D20286E08083E091CF02F091D0028081D6
:1017400080618083E091CF02F091D0028081886037
:101750008083E091CF02F091D00280818068808305
:10176000E091CF02F091D00280818F7D808382E072
:101770000E94000680915B04803308F052C061E053
:1017800089E00E94480280915B04282F30E0F90133
:10179000EE0FFF1FE20FF31FE65AFC4F9081907C83
:1017A0009960908310925C0410925D042CE0622F8B
:1017B0000E949C0C829FB001112430E020E0AB011C
:1017C000420F531FFA01EE0FFF1FE40FF51FE65AF9
:1017D000FC4F908196FD17C02F5F3F4F2C30310595
:1017E00071F7813009F07CC01092800082E0809314
:1017F00081001092850010928400B19A80916F0050
:10180000826080936F00E0915B048E2F90E0FC017A
:10181000EE0FFF1FE80FF91FE65AFC4F808180642E
:10182000808361E086E10E94480261E087E10E94D6
:10183000480261E088E10E94480261E089E10E947B
:101840004802CEE061E08C2F0E944802CF5FC23197
:10185000C9F760E08C2F0E944802CF5FC631C9F7FC
:101860000E94F80588E40E94F205C0E0D2E0699188
:1018700083E494E00E94B00682E0C830D807B9F74C
:1018800060E080E00E94A10661E083E494E00E94B1
:10189000B00660E082E00E94A1068DE792E00E941F
:1018A000B60660E08DE00E94A10661E083E494E06A
:1018B0000E94B00661E080E00E94A10688E892E004
:1018C0000E94B6068AE00E94F1010197D9F76CE206
:1018D00071E080E090E00E949E020E94C306F2CF79
:1018E000823061F4109290008093910010929500E4
:1018F0001092940088BB8093710085CF833069F487
:101900001092A00082E08093A1001092A500109296
:10191000A40089BB8093720076CF811174CF10929E
:10192000200182E080932101109225011092240170
:101930008ABB8093730067CF991B79E004C0991F1D
:10194000961708F0961B881F7A95C9F78095089519
:10195000EE0FFF1F881F8BBF0790F691E02D1994A3
:04196000F894FFCF29
:1019640004160D060D16040700080009000C0004F7
:1019740000050006000D000100020003000E000A2D
:101984000000000B000F00000000006603D002FD01
:1019940002B3032E030C03200300000000B006D0A2
:1019A4000205040404496E6963696F205365736911
:1019B4006F6E00496E67726573652061706F646F46
:1019C40000496E677265736520636F6E747261009F
:1019D40020202020202020202020002A0042696589
:1019E4006E76656E69646F00475250203131202055
:0819F40020205345432041006F
:00000001FF
