:100000000C9457010C9488010C9488010C9488017D
:100010000C9488010C9488010C9488010C9488013C
:100020000C9488010C9488010C9488010C9488012C
:100030000C9488010C9488010C9488010C9488011C
:100040000C9488010C94F7070C9488010C94880197
:100050000C9488010C9488010C9488010C94C306BC
:100060000C9488010C9437070C940D070C948801AC
:100070000C9488010C9488010C9488010C948801DC
:100080000C94C9070C9488010C9488010C94880185
:100090000C9488010C9488010C9488010C948801BC
:1000A0000C9488010C9488010C949B070C94880193
:1000B0000C9488010C9488010C9488010C946D07B1
:1000C0000C9488010C9488010C9488010C9488018C
:1000D0000C9488010C9488010C9488010C9488017C
:1000E0000C9488010C94750C0C9425080C94DC0C71
:1000F0000C94650C0C94AE010C94BA010C94DB01C9
:100100000C94E9010C94C7010C94FD020C942E038D
:100110000C94ED010C94D0020C9420030C940B0C65
:100120000C94E3010C94DF010C94350C0C94B60193
:100130000C94090D0C94C20C0C94FA0C0C9405044C
:100140000C94D5010C94C3010C94550C0C94180D0F
:100150000C94B3030C94270D0C940C030C94EB0C2F
:100160000C94250C0C94B2010C94BD010C94A801C4
:100170000C94CD010C9466030C94B0060C94450CC1
:100180000C94E8010C9404040C94D10100002100AB
:10019000240027002A002D00300033000101000058
:1001A000040107010A0100002200250028002B009D
:1001B0002E003100340002010000050108010B018E
:1001C000000020002300260029002C002F00320010
:1001D00000010000030106010901050505050705E9
:1001E00008080808020202020A0A080804040404B3
:1001F00001010101010101010303030303030303DF
:10020000040707070C0C0C0C0C0C0C0C020202026D
:1002100006060606060606060B0B0B0B0B0B0B0B56
:100220000102102020080810204010204080020108
:1002300002010804020101020408102040808040ED
:1002400020100804020180040201804020100804EC
:10025000020108040201010204081020408001028A
:1002600004081020408000000A0B02090C0D0E0843
:10027000070304010000000000000000000000006F
:10028000000000000000000000000000000000006E
:10029000000012111000000000000000000000002B
:1002A00000000000000000000000000025081124EC
:1002B0001FBECFEFD1E2DEBFCDBF00E00CBF12E02A
:1002C000A0E0B2E0E6E4FBE100E00BBF02C0079073
:1002D0000D92A83DB107D9F724E0A8EDB2E001C026
:1002E0001D92A03AB207E1F711E0C7E5D1E000E0C6
:1002F00006C021970109802FFE010E948C0DC63592
:10030000D10780E00807A9F70E943A090C94A10DD3
:100310000C9400008150823108F05AC0E82FF0E0C0
:100320008827EA56FE4F8F4F0C948C0DB601BA0108
:10033000A801AE01B201E801BD01C301C701CD01B1
:10034000D101D501DB01DF01E801E301E901ED01A4
:10035000809180008F778093800008958091800045
:100360008F7DF9CF80918000877FF5CF84B58F771F
:1003700084BD089584B58F7DFBCF8091B0008F77C9
:100380008093B00008958091B0008F7DF9CF809167
:1003900090008F77809390000895809190008F7DDA
:1003A000F9CF80919000877FF5CF8091A0008F7763
:1003B0008093A00008958091A0008F7DF9CF809157
:1003C000A000877FF5CF809120018F778093200157
:1003D0000895809120018F7DF9CF80912001877F42
:1003E000F5CFCF93DF93282F30E0F901EA59FD4F85
:1003F0008491F901E05EFD4FD491F901E652FE4F80
:10040000C491CC23A1F081110E948A01EC2FF0E06D
:10041000EE0FFF1FE054FE4FA591B491EC91ED2338
:1004200081E090E009F480E0DF91CF91089580E0D1
:1004300090E0FACF1F93CF93DF93282F30E0F9019C
:10044000EA59FD4F8491F901E05EFD4FD491F90125
:10045000E652FE4FC491CC23A9F0162F81110E94C1
:100460008A01EC2FF0E0EE0FFF1FEA55FE4FA59139
:10047000B4918FB7F894EC91111108C0D095DE2398
:10048000DC938FBFDF91CF911F910895DE2BF8CFC2
:10049000CF93DF9390E0FC01E05EFD4F2491865204
:1004A0009E4FFC0184918823D1F090E0880F991F22
:1004B000FC01E457FE4FA591B491FC01EA55FE4FB3
:1004C000C591D49161110EC09FB7F8948C91E22F21
:1004D000E0958E238C932881E223E8839FBFDF91F0
:1004E000CF9108958FB7F894EC91E22BEC938FBFE6
:1004F000F6CF3FB7F8948091FB029091FC02A09157
:10050000FD02B091FE0226B5A89B05C02F3F19F051
:100510000196A11DB11D3FBFBA2FA92F982F882783
:10052000BC01CD01620F711D811D911D42E0660F5E
:10053000771F881F991F4A95D1F708958F929F9230
:10054000AF92BF92CF92DF92EF92FF924B015C018C
:100550000E9479026B017C010E9479026C197D096D
:100560008E099F09683E734081059105A8F321E03B
:10057000821A9108A108B10888EEC80E83E0D81E3F
:10058000E11CF11C81149104A104B10429F7FF902E
:10059000EF90DF90CF90BF90AF909F908F90089595
:1005A000AF92BF92CF92DF92EF92FF920F931F9381
:1005B000CF93DF936C017B018B01040F151FEB01BF
:1005C0005E01AE18BF08C017D10759F06991D60176
:1005D000ED91FC910190F081E02DC6011995892BD8
:1005E00079F7C501DF91CF911F910F91FF90EF90A7
:1005F000DF90CF90BF90AF900895FC01538D448D54
:10060000252F30E0842F90E0821B930B541710F0BD
:10061000CF96089501970895FC01918D828D9817CA
:1006200061F0A28DAE0FBF2FB11D5D968C91928DA2
:100630009F5F9F73928F90E008958FEF9FEF0895D3
:10064000FC01918D828D981731F0828DE80FF11D9C
:10065000858D90E008958FEF9FEF0895FC01918DB7
:10066000228D892F90E0805C9F4F821B91098F73B0
:10067000992708958FEF92E00E942E0321E0892BA5
:1006800009F420E0822F0895FC01A48DA80FB92F52
:10069000B11DA35ABF4F2C91848D90E001968F73AA
:1006A0009927848FA689B7892C93A089B1898C91C9
:1006B000837080648C93938D848D981306C0028818
:1006C000F389E02D80818F7D80830895EF92FF92E2
:1006D0000F931F93CF93DF93EC0181E0888F9B8D65
:1006E0008C8D98131AC0E889F989808185FF15C01F
:1006F0009FB7F894EE89FF896083E889F989808142
:100700008370806480839FBF81E090E0DF91CF9110
:100710001F910F91FF90EF900895F62E0B8D10E032
:100720000F5F1F4F0F731127E02E8C8D8E110CC0A1
:100730000FB607FCFACFE889F989808185FFF5CFEC
:10074000CE010E944403F1CFEB8DEC0FFD2FF11D84
:10075000E35AFF4FF0829FB7F8940B8FEA89FB8929
:1007600080818062CFCFCF93DF93EC01888D882387
:10077000B9F0AA89BB89E889F9898C9185FD03C004
:10078000808186FD0DC00FB607FCF7CF8C9185FFE9
:10079000F2CF808185FFEDCFCE010E944403E9CFE7
:1007A000DF91CF91089580E090E0892B29F00E949D
:1007B0003A0381110E94000080E090E0892B49F00B
:1007C00080E090E0892B29F00E94000081110E94B6
:1007D000000080E090E0892B49F080E090E0892BD8
:1007E00029F00E94000081110E94000080E090E04A
:1007F000892B49F080E090E0892B29F00E940000CD
:1008000081110C9400000895089590E080E008950F
:10081000AF92BF92CF92DF92EF92FF920F931F930E
:10082000CF93DF936B017A01EC01C852DD4F288131
:100830003CE0389F8001399F100D1124A0902C04BA
:10084000B12C27FF1FC0FB011182108288818F5FAE
:10085000888388819801280F311D87FD3A95F6011C
:100860002A153B051CF488818C30C4F1808191816C
:10087000049680349C4908F473C0F601808191810C
:10088000049670C088819801280F311D87FD3A9524
:100890002A153B05DCF68881A801480F511D87FD0C
:1008A0005A95FA01EE0FFF1FE40FF51FE456FC4FB7
:1008B000808186FFCBCF8881F801E80FF11D87FD8D
:1008C000FA95CF01EE0FFF1FE80FF91FE456FC4F1A
:1008D000808160E08F730E941A02B8CF808191817D
:1008E0002881A801420F511D27FD5A959A01FA014E
:1008F000EE0FFF1FE20FF31FE456FC4F2181328100
:10090000820F931FF7019183808388819801280FBC
:10091000311D87FD3A95F901EE0FFF1FE20FF31F1E
:10092000E456FC4F808186FF22C08881080F111D8C
:1009300087FD1A95F801EE0FFF1FE00FF11FE45637
:10094000FC4F808161E08F73DF91CF911F910F91F8
:10095000FF90EF90DF90CF90BF90AF900C941A0271
:1009600080E49CE9F701918380838FEF8883DF9196
:10097000CF911F910F91FF90EF90DF90CF90BF909C
:10098000AF900895FF920F931F93CF93DF93CEE024
:10099000D0E0FC2E61E08C2F0E941A0202E110E0F0
:1009A000802F0E94F1010197C9F460E08F2D0E9411
:1009B0001A022E97CC0FDD1FCC0FDD1F025111093B
:1009C000C00FD11FCC0FDD1FC55DDD4F8881998120
:1009D000DF91CF911F910F91FF9008950F5F1F4FEF
:1009E00006311105E9F660E08F2D0E941A0221966A
:1009F000C231D10571F68FEF9FEFEACFCF92DF9230
:100A0000EF92FF920F931F93CF93DF931F921F924A
:100A1000CDB7DEB769834A83880F991F009183049D
:100A200010918404000F111FEDE2F4E09F012D529C
:100A300034402017310714F41192F8CF2981FC01BA
:100A4000E35DFB4F21838A81808360E08091810494
:100A50000E941A021016110604F501501109F8013E
:100A6000E35DFB4FE080D0907F04C0907D0488E080
:100A7000F82E6E2D661F6627661F8C2D0E941A02A7
:100A8000EE0C61E08D2D0E941A0260E08D2D0E9417
:100A90001A02FA94F110EDCFDDCF61E0809181046C
:100AA0000F900F90DF91CF911F910F91FF90EF90DA
:100AB000DF90CF900C941A02CF93DF93EC0160E0AB
:100AC0008E810E941A0261E08E810E941A0260E00B
:100AD0008E810E941A028BE891E00197F1F7DF9175
:100AE000CF910895CF92DF92EF92FF920F931F93D1
:100AF000CF93DF936C017C0187E0E80EF11CD0E01E
:100B0000C0E0062F10E0B8010C2E02C07595679565
:100B10000A94E2F76170F70181917F010E941A0245
:100B20002196C430D10579F7C601DF91CF911F918D
:100B30000F91FF90EF90DF90CF900C945C05CF92D7
:100B4000DF92EF92FF920F931F93CF93DF93EC010D
:100B5000F62E642F8C810E941A028D818F3F19F02E
:100B600060E00E941A020F2D10E08F8584FF25C0DF
:100B70006E0187E0C80ED11CF12CE12CB8010E2CBF
:100B800002C0759567950A94E2F76170F60181914C
:100B90006F010E941A02FFEFEF1AFF0A88E0E816C1
:100BA000F10461F7CE01DF91CF911F910F91FF907A
:100BB000EF90DF90CF900C945C05B80184E07595C0
:100BC00067958A95E1F7CE010E9472056F2DCE01DF
:100BD000DF91CF911F910F91FF90EF90DF90CF9019
:100BE0000C94720540E0682F85E894E00C949F0512
:100BF00081E00E94F2058BE39FE10197F1F70895F0
:100C0000CF93DF93823029F490919404986090936D
:100C10009404809398041092990480E480939A0439
:100C200080E180939B0480E580939C0461E0809147
:100C300089040E94480280918A048F3F19F061E084
:100C40000E94480261E080918B040E944802C5E83E
:100C5000D4E09E01255834408091940484FD0BC05B
:100C600084E090E021962817390744F461E08E81F2
:100C70000E944802EECF88E090E0F4CF8BE39DE045
:100C80000197F1F760E0809189040E941A0260E008
:100C900080918B040E941A0280918A048F3F19F080
:100CA00060E00E941A028091940484FD34C063E0E5
:100CB00085E894E00E947205CBE4D6E4CE0101976A
:100CC000F1F763E085E894E00E9472052197F1F75F
:100CD00063E085E894E00E94720583E592E0019765
:100CE000F1F762E085E894E00E9472058091940437
:100CF00080620E94F20584E0809395048CE00E945B
:100D0000F2050E94F80582E08093960486E0DF9168
:100D1000CF910C94F20580620E94F2058BE496E478
:100D20000197F1F78091940480620E94F20583E5B7
:100D300092E00197F1F78091940480620E94F2059D
:100D4000D5CF90919804691710F06FEF690FE62FD7
:100D5000F0E0EB57FB4F9489890F80680C94F20503
:100D600041E00E949F0581E090E00895FC01019020
:100D70000020E9F73197AF01481B590BBC0185E80A
:100D800094E00C94D0021F920F920FB60F92112490
:100D90002F933F938F939F93AF93BF938091F702CD
:100DA0009091F802A091F902B091FA023091F60206
:100DB00023E0230F2D3758F50196A11DB11D209377
:100DC000F6028093F7029093F802A093F902B09391
:100DD000FA028091FB029091FC02A091FD02B09179
:100DE000FE020196A11DB11D8093FB029093FC02AF
:100DF000A093FD02B093FE02BF91AF919F918F919E
:100E00003F912F910F900FBE0F901F90189526E8DD
:100E1000230F0296A11DB11DD2CF1F920F920FB6C4
:100E20000F9211240BB60F922F933F934F935F9322
:100E30006F937F938F939F93AF93BF93EF93FF93A2
:100E40008FEF92E00E944403FF91EF91BF91AF9129
:100E50009F918F917F916F915F914F913F912F91D2
:100E60000F900BBE0F900FBE0F901F9018951F9202
:100E70000F920FB60F9211240BB60F922F938F93F0
:100E80009F93EF93FF93E0910F03F0911003808104
:100E9000E0911503F091160382FD1DC090818091B1
:100EA00018038F5F8F7320911903821741F0E0912F
:100EB0001803F0E0E150FD4F958F80931803FF91E8
:100EC000EF919F918F912F910F900BBE0F900FBEBE
:100ED0000F901F9018958081F2CF1F920F920FB63E
:100EE0000F9211240BB60F922F933F934F935F9362
:100EF0006F937F938F939F93AF93BF93EF93FF93E2
:100F000048E251E064E271E090E080E00E94080471
:100F1000FF91EF91BF91AF919F918F917F916F91D1
:100F20005F914F913F912F910F900BBE0F900FBE8D
:100F30000F901F9018951F920F920FB60F921124C9
:100F40000BB60F922F933F934F935F936F937F93C3
:100F50008F939F93AF93BF93EF93FF9348EA50E033
:100F600064EA70E083E090E00E940804FF91EF9152
:100F7000BF91AF919F918F917F916F915F914F91B1
:100F80003F912F910F900BBE0F900FBE0F901F90AF
:100F900018951F920F920FB60F9211240BB60F9255
:100FA0002F933F934F935F936F937F938F939F9371
:100FB000AF93BF93EF93FF9348E950E064E970E08B
:100FC00082E090E00E940804FF91EF91BF91AF9101
:100FD0009F918F917F916F915F914F913F912F9151
:100FE0000F900BBE0F900FBE0F901F9018951F9281
:100FF0000F920FB60F9211240BB60F922F933F93BF
:101000004F935F936F937F938F939F93AF93BF9310
:10101000EF93FF9348E850E064E870E081E090E0EF
:101020000E940804FF91EF91BF91AF919F918F9122
:101030007F916F915F914F913F912F910F900BBED8
:101040000F900FBE0F901F901895EF92FF921F9375
:10105000CF93DF93109202031092010388EE93E086
:10106000A0E0B0E08093030390930403A0930503F2
:10107000B09306038FE492E0909300038093FF0205
:1010800085EC90E090930C0380930B0384EC90E04C
:1010900090930E0380930D0380EC90E090931003E7
:1010A00080930F0381EC90E09093120380931103DF
:1010B00082EC90E0909314038093130386EC90E00D
:1010C000909316038093150310921803109219033E
:1010D00010921A0310921B0380912C04803308F0A5
:1010E000BFC091E0980F90932C0480939D0490E0F2
:1010F000FC01EE0FFF1FE80FF91FE456FC4F88EBD1
:101100009BE092838183109288041092870481E689
:1011100092E090938604809385048BE18093890408
:101120008FEF80938A048AE180938B0482E080931E
:101130008C0483E080938D0484E080938E0485E0AA
:1011400080938F0410929004109291041092920454
:10115000109293041092940481E00E940006C6E06D
:10116000D0E0D0937E04C0937D0487E090E090931C
:10117000800480937F0488E090E0909382048093C1
:10118000810481E090E0909384048093830461E083
:1011900086E00E94480261E080917F040E9448023C
:1011A00061E0809181040E94480261E080918104A5
:1011B0000E941A02D0937E04C0937D04EDE3F4E014
:1011C000119224E0ED37F207D9F7D0E0C0E080912A
:1011D000830490918404C817D9070CF045C040E0FF
:1011E0006FE0CE010E94FE048091830490918404FC
:1011F000C817D9072CF447E06BE0CE010E94FE042B
:1012000040E069E0CE010E94FE0480918304909149
:101210008404C817D907B4F4CE0123E0880F991FBE
:101220002A95E1F7FC01E35CFB4F7F0111E0F70138
:1012300011927F0140E0612FCE010E94FE041F5FEA
:101240001930A9F78091830490918404C817D907B5
:101250002CF440E06CE0CE010E94FE042196B7CF52
:101260008FEF80939D044FCFDF91CF911F91FF901F
:10127000EF900895CF93DF93CDB7DEB7E7970FB622
:10128000F894DEBF0FBECDBF789484B5826084BD74
:1012900084B5816084BD85B5826085BD85B581607A
:1012A00085BD80916E00816080936E0010928100F8
:1012B00080918100826080938100809181008160B3
:1012C0008093810080918000816080938000809174
:1012D000B10084608093B1008091B0008160809300
:1012E000B000809191008260809391008091910084
:1012F0008160809391008091900081608093900044
:101300008091A10082608093A1008091A100816002
:101310008093A1008091A00081608093A0008091C3
:10132000210182608093210180912101816080935D
:1013300021018091200181608093200180917A00B9
:10134000846080937A0080917A00826080937A0032
:1013500080917A00816080937A0080917A00806821
:1013600080937A001092C100E0910F03F091100376
:1013700082E08083E0910B03F0910C031082E091F6
:101380000D03F0910E038FEC808310921703E09110
:101390001303F091140386E08083E0911103F09130
:1013A0001203808180618083E0911103F091120328
:1013B000808188608083E0911103F0911203808125
:1013C00080688083E0911103F091120380818F7D0A
:1013D000808382E00E94000680919D04803308F0A3
:1013E00052C061E089E00E94480280919D04282F4C
:1013F00030E0F901EE0FFF1FE20FF31FE456FC4F40
:101400009081907C9960908310929E0410929F042A
:101410002CE0622F0E94800D829FB001112430E0E9
:1014200020E0AB01420F531FFA01EE0FFF1FE40F44
:10143000F51FE456FC4F908196FD17C02F5F3F4F7C
:101440002C30310571F7813009F0B5C01092800061
:1014500082E0809381001092850010928400B19AFE
:1014600080916F00826080936F00E0919D048E2FC9
:1014700090E0FC01EE0FFF1FE80FF91FE456FC4F50
:1014800080818064808361E086E10E94480261E09F
:1014900087E10E94480261E088E10E94480261E021
:1014A00089E10E94480260E08DE00E94480260E00D
:1014B0008CE00E94480260E08AE00E94480260E0FE
:1014C0008BE00E9448021EE061E0812F0E944802EA
:1014D0001F5F1231C9F760E0812F0E9448021F5F31
:1014E0001631C9F784E2E7E0F2E0DE0111960190DF
:1014F0000D928A95E1F710E000E06E0185E2C80EDA
:10150000D11CF12CE12CF60191906F015801AE0C29
:10151000BF1CC5010E946A0D981621F0692DC501F6
:101520000E94720DFFEFEF1AFF0A83E1E816F10443
:1015300051F70D5E1F4F0E3B1105F9F6FE01319676
:101540007F010EEB10E0F701D1907F01C8010E94EE
:101550006A0DD81621F06D2DC8010E94720D0F5F23
:101560001F4F023E110579F760E083EE90E00E9484
:10157000720D78E0C72E72E0D72E0AEE12E0E6E494
:101580009E2EF5E48F2EA4E47A2EBCEDEB2EB2E075
:10159000FB2E8091F4029091F5020097C1F1019722
:1015A00009F483C064E670E080E090E00E949E024F
:1015B0000E94D303EECF823061F4109290008093AA
:1015C0009100109295001092940088BB8093710056
:1015D0004CCF833069F41092A00082E08093A10088
:1015E0001092A5001092A40089BB809372003DCF99
:1015F00081113BCF1092200182E080932101109253
:101600002501109224018ABB809373002ECF0E9483
:10161000F80588E40E94F20560E0A62E62E0B62E8E
:10162000F50161915F0185E894E00E94B006CA145B
:10163000DB04B1F760E080E00E94A10661E085E88C
:1016400094E00E94B00660E082E00E94A1064AE0B9
:1016500050E069E672E085E894E00E94D00260E024
:101660008DE00E94A10661E085E894E00E94B0064A
:1016700061E080E00E94A1064FE050E064E772E084
:1016800085E894E00E94D0028AE00E94F101813056
:101690009105D1F79093F5028093F4026CE271E02A
:1016A00080E090E00E949E027DCF0E94F80560E0FD
:1016B00080E00E94A10684E892E00E94B60664EFF2
:1016C00071E080E090E00E949E020E94F80560E0D8
:1016D00080E00E94A10682E992E00E94B60661E0E5
:1016E00080E00E94A10633E4B32E42E4A42E51E42C
:1016F000652E8AE00E94F101019709F04FC064E075
:1017000071E080E090E00E949E020E94F80560E097
:1017100080E00E94A10680EA92E00E94B60661E0A5
:1017200080E00E94A10683E4B82E92E4A92E21E471
:10173000622E8AE00E94F101019709F0E6C064E0A0
:1017400071E080E090E00E949E021092E702109209
:10175000E60284E2E7E0F2E0DE01119601900D92EC
:101760008A95E1F74AE050E06AEE72E0CE014196D8
:101770000E94940D892B09F479C10E94F80560E05C
:1017800080E00E94A10689EC92E00E94B60664EF18
:1017900071E080E090E00E949E0289C18BE00E948F
:1017A000F1010197A9F48AE0F80111928A95E9F70D
:1017B0001092E9021092E80261E080E00E94A10626
:1017C0008FEA92E00E94B60661E080E00E94A106E6
:1017D0000E94C204682FE82FF92FE031F10508F0CC
:1017E00088CF2091E8023091E9028827E550F44F34
:1017F0008F4F0C948C0D0B0C0B0C0B0C0B0C0B0C5F
:101800000B0C0B0C0B0C0B0C0B0C250C350C450CA2
:10181000550C650C750C2A30310509F46ACF605DF2
:10182000C90101969093E9028093E80226513D4F49
:10183000F901608385E894E00E94B00664E071E0FD
:1018400080E090E00E949E0254CF2A30310509F4D6
:1018500050CFC90101969093E9028093E802265186
:101860003D4FF901608261E4E5CF2A30310509F48A
:1018700040CFC90101969093E9028093E802265176
:101880003D4FF901A08262E4D5CF2A30310509F439
:1018900030CFC90101969093E9028093E802265166
:1018A0003D4FF901B08263E4C5CF2A30310509F418
:1018B00020CFC90101969093E9028093E802265156
:1018C0003D4FF901708264E4B5CF2A30310509F447
:1018D00010CFC90101969093E9028093E802265146
:1018E0003D4FF901808265E4A5CF2A30310509F426
:1018F00000CFC90101969093E9028093E802265136
:101900003D4FF901908266E495CF8BE00E94F10192
:101910000197A9F48AE0F70111928A95E9F71092EC
:10192000E7021092E60261E080E00E94A1068FEAE1
:1019300092E00E94B60661E080E00E94A1060E944B
:10194000C204482FE82FF92FE031F10508F0F1CE5D
:101950002091E6023091E7028827EE54F34F8F4F33
:101960000C948C0DC20CC20CC20CC20CC20CC20C6A
:10197000C20CC20CC20CC20CDC0CEB0CFA0C090D34
:10198000180D270D2A30310509F4D3CEC90101966F
:101990009093E7028093E60224523D4F405DF901A7
:1019A00040838AEB92E00E94B60664E071E080E03A
:1019B00090E00E949E02BDCE2A30310509F4B9CED6
:1019C000C90101969093E7028093E60224523D4FAD
:1019D000F9016082E6CF2A30310509F4AACEC901A7
:1019E00001969093E7028093E60224523D4FF9015D
:1019F000A082D7CF2A30310509F49BCEC9010196C8
:101A00009093E7028093E60224523D4FF901B082A1
:101A1000C8CF2A30310509F48CCEC90101969093C4
:101A2000E7028093E60224523D4FF9017082B9CF5C
:101A30002A30310509F47DCEC90101969093E70261
:101A40008093E60224523D4FF9018082AACF2A30CA
:101A5000310509F46ECEC90101969093E702809397
:101A6000E60224523D4FF90190829BCF4AE050E0BC
:101A70006CED72E0CE014B960E94940D892B09F01B
:101A80007CCE0E94F80560E080E00E94A1068CEB0D
:101A900092E00E94B60664EF71E080E090E00E9460
:101AA0009E0282E090E09093F5028093F4028AE037
:101AB000F801982F11929A95E9F7F70111928A95FA
:101AC000E9F71092E7021092E6021092E9021092F2
:101AD000E80268CDF999FECF92BD81BDF89A9927A9
:101AE00080B50895262FF999FECF1FBA92BD81BD0A
:101AF00020BD0FB6F894FA9AF99A0FBE0196089590
:101B0000991B79E004C0991F961708F0961B881F4F
:101B10007A95C9F780950895EE0FFF1F881F8BBF38
:101B20000790F691E02D1994FB01DC0104C08D9122
:101B30000190801921F441505040C8F7881B990B3F
:061B40000895F894FFCFA8
:101B460004160D060D1604616431316D696E2D6142
:101B5600000000000000004134313532460000002C
:101B66000035413131373000000000070008000918
:101B7600000C000400050006000D00010002000331
:101B8600000E000A0000000B000F000000000066B7
:101B960003D002FD02B3032E030C03200300000052
:101BA60000B006D002050404044269656E76656ECF
:101BB60069646F0047525020313120202020534560
:101BC60043204100496E6963696F20536573696FED
:101BD6006E00496E67726573652061706F646F0091
:101BE600496E677265736520636F6E74726100205B
:101BF600202020202020202020002A00496E676512
:101C060073616E646F2E2E2E004461746F732065AF
:081C160072726F6E656F7300BE
:00000001FF
