:100000000C943B010C946C010C946C010C946C01ED
:100010000C946C010C946C010C946C010C946C01AC
:100020000C946C010C946C010C946C010C946C019C
:100030000C946C010C946C010C946C010C946C018C
:100040000C946C010C9453070C946C010C946C018F
:100050000C946C010C946C010C946C010C941F06B4
:100060000C946C010C9493060C9469060C946C012E
:100070000C946C010C946C010C946C010C946C014C
:100080000C9425070C946C010C946C010C946C017D
:100090000C946C010C946C010C946C010C946C012C
:1000A0000C946C010C946C010C94F7060C946C018C
:1000B0000C946C010C946C010C946C010C94C906AA
:1000C0000C946C010C946C010C946C010C946C01FC
:1000D0000C946C010C946C010C946C010C946C01EC
:1000E0000C946C010C94DE010C94E6010C94A602B5
:1000F0000C94C0010C94E2010C9479020C94D4018C
:100100000C94C6010C940F030C94B5010C94AD0330
:100110000C9481070C94AE030C94CA010C94B101A9
:100120000C94BD010C94D0010C94EB010C94B9011A
:100130000C94D8010C94B5020C945C030C94190631
:100140000C94F0010C94AB010C94EC010C94D702CC
:100150000C94C902000020002300260029002C0076
:100160002F00320000010000030106010901000018
:100170000A0B02090C0D0E08070304010000000021
:10018000000000000000000000000000000000006F
:10019000000000000000000000001211100000002C
:1001A000000000000000000000000000000000004F
:1001B0000000000000002200250028002B002E0077
:1001C0003100340002010000050108010B010000AC
:1001D0002100240027002A002D00300033000101F7
:1001E0000000040107010A010505050507050808C7
:1001F0000808020202020A0A0808040404040101B1
:1002000001010101010103030303030303030407C5
:1002100007070C0C0C0C0C0C0C0C0202020206065C
:100220000606060606060B0B0B0B0B0B0B0B01024F
:1002300010202008081020401020408002010201F8
:1002400008040201010204081020408080402010B0
:100250000804020180040201804020100804020109
:100260000804020101020408102040800102040871
:1002700010204080810711241FBECFEFD1E2DEBFE6
:10028000CDBF00E00CBF12E0A0E0B2E0E0ECF4E192
:1002900000E00BBF02C007900D92AC35B107D9F753
:1002A00024E0ACE5B2E001C01D92AA30B207E1F74C
:1002B00011E0CBE3D1E000E006C021970109802FD7
:1002C000FE010E94560ACA33D10780E00807A9F749
:1002D0000E9493080C945E0A0C94000090E0FC01CC
:1002E000E25DFD4F249188519E4FFC01849188234B
:1002F00099F090E0880F991FFC01E253FE4FA59101
:10030000B491FC01EC54FE4F859194918FB7F89411
:10031000EC91E22BEC938FBF08958150823108F06D
:100320005AC0E82FF0E08827E756FE4F8F4F0C9415
:10033000560AB901BD01AB01B101B501EB01C00124
:10034000C601CA01D001D401D801DE01E201EB01EE
:10035000E601EC01F001809180008F7780938000AE
:100360000895809180008F7DF9CF80918000877FF4
:10037000F5CF84B58F7784BD089584B58F7DFBCF8D
:100380008091B0008F778093B00008958091B00085
:100390008F7DF9CF809190008F77809390000895A2
:1003A000809190008F7DF9CF80919000877FF5CF6D
:1003B0008091A0008F778093A00008958091A00085
:1003C0008F7DF9CF8091A000877FF5CF80912001AC
:1003D0008F77809320010895809120018F7DF9CF40
:1003E00080912001877FF5CF1F93CF93DF93282F34
:1003F00030E0F901E259FE4F8491F901E25DFD4FD1
:10040000D491F901E851FE4FC491CC23A9F0162FE5
:1004100081110E948D01EC2FF0E0EE0FFF1FEC54D4
:10042000FE4FA591B4918FB7F894EC91111108C0CB
:10043000D095DE23DC938FBFDF91CF911F9108957C
:10044000DE2BF8CF3FB7F894809165029091660259
:10045000A0916702B091680226B5A89B05C02F3F06
:1004600019F00196A11DB11D3FBFBA2FA92F982FDA
:100470008827BC01CD01620F711D811D911D42E0D5
:10048000660F771F881F991F4A95D1F708958F929D
:100490009F92AF92BF92CF92DF92EF92FF924B0169
:1004A0005C010E9422026B017C010E9422026C19F5
:1004B0007D098E099F09683E734081059105A8F367
:1004C00021E0821A9108A108B10888EEC80E83E0E5
:1004D000D81EE11CF11C81149104A104B10429F778
:1004E000FF90EF90DF90CF90BF90AF909F908F9054
:1004F0000895AF92BF92CF92DF92EF92FF920F9347
:100500001F93CF93DF936C017B018B01040F151FA9
:10051000EB015E01AE18BF08C017D10759F0699111
:10052000D601ED91FC910190F081E02DC601199565
:10053000892B79F7C501DF91CF911F910F91FF9022
:10054000EF90DF90CF90BF90AF900895FC01538D56
:10055000448D252F30E0842F90E0821B930B54179D
:1005600010F0CF96089501970895FC01918D828D2A
:10057000981761F0A28DAE0FBF2FB11D5D968C91C3
:10058000928D9F5F9F73928F90E008958FEF9FEF02
:100590000895FC01918D828D981731F0828DE80FBE
:1005A000F11D858D90E008958FEF9FEF0895FC0178
:1005B000918D228D892F90E0805C9F4F821B910945
:1005C0008F739927089589E692E00E94D70221E06F
:1005D000892B09F420E0822F0895FC01A48DA80F37
:1005E000B92FB11DA35ABF4F2C91848D90E0019675
:1005F0008F739927848FA689B7892C93A089B18995
:100600008C91837080648C93938D848D981306C035
:100610000288F389E02D80818F7D80830895EF9299
:10062000FF920F931F93CF93DF93EC0181E0888FAC
:100630009B8D8C8D98131AC0E889F989808185FF7C
:1006400015C09FB7F894EE89FF896083E889F9891E
:1006500080818370806480839FBF81E090E0DF9120
:10066000CF911F910F91FF90EF900895F62E0B8D73
:1006700010E00F5F1F4F0F731127E02E8C8D8E112E
:100680000CC00FB607FCFACFE889F989808185FF95
:10069000F5CFCE010E94ED02F1CFEB8DEC0FFD2FD7
:1006A000F11DE35AFF4FF0829FB7F8940B8FEA8950
:1006B000FB8980818062CFCFCF93DF93EC01888D5F
:1006C0008823B9F0AA89BB89E889F9898C9185FDCD
:1006D00003C0808186FD0DC00FB607FCF7CF8C915B
:1006E00085FFF2CF808185FFEDCFCE010E94ED0224
:1006F000E9CFDF91CF91089580E090E0892B29F038
:100700000E94E30281110E94000080E090E0892BAA
:1007100049F080E090E0892B29F00E9400008111CF
:100720000E94000080E090E0892B49F080E090E09A
:10073000892B29F00E94000081110E94000080E0B6
:1007400090E0892B49F080E090E0892B29F00E940D
:10075000000081110C9400000895089590E080E05D
:100760000895AF92BF92CF92DF92EF92FF920F93D4
:100770001F93CF93DF936B017A01EC01C45ADD4FD5
:1007800028813CE0389F8001399F100D1124A090F2
:100790009603B12C27FF1FC0FB01118210828881B4
:1007A0008F5F888388819801280F311D87FD3A95D6
:1007B000F6012A153B051CF488818C30C4F1808138
:1007C0009181049680349C4908F473C0F6018081BD
:1007D0009181049670C088819801280F311D87FD92
:1007E0003A952A153B05DCF68881A801480F511D72
:1007F00087FD5A95FA01EE0FFF1FE40FF51FEA5F20
:10080000FC4F808186FFCBCF8881F801E80FF11D76
:1008100087FDFA95CF01EE0FFF1FE80FF91FEA5F82
:10082000FC4F808160E08F730E94F401B8CF80811B
:1008300091812881A801420F511D27FD5A959A01E7
:10084000FA01EE0FFF1FE20FF31FEA5FFC4F218159
:100850003281820F931FF7019183808388819801F1
:10086000280F311D87FD3A95F901EE0FFF1FE20FAA
:10087000F31FEA5FFC4F808186FF22C08881080F4A
:10088000111D87FD1A95F801EE0FFF1FE00FF11FF4
:10089000EA5FFC4F808161E08F73DF91CF911F9100
:1008A0000F91FF90EF90DF90CF90BF90AF900C949E
:1008B000F40180E49CE9F701918380838FEF8883C2
:1008C000DF91CF911F910F91FF90EF90DF90CF902C
:1008D000BF90AF900895CF92DF92EF92FF920F9367
:1008E0001F93CF93DF931F921F92CDB7DEB769831B
:1008F0004A83880F991F0091ED031091EE03000FBA
:10090000111FE7E9F3E09F01275933402017310712
:1009100014F41192F8CF2981FC01E956FC4F218390
:100920008A81808360E08091EB030E94F4011016BD
:10093000110604F501501109F801E956FC4FE08059
:10094000D090E903C090E70388E0F82E6E2D661F73
:100950006627661F8C2D0E94F401EE0C61E08D2D40
:100960000E94F40160E08D2D0E94F401FA94F110D0
:10097000EDCFDDCF61E08091EB030F900F90DF9121
:10098000CF911F910F91FF90EF90DF90CF900C943B
:10099000F401CF93DF93EC0160E08E810E94F401BB
:1009A00061E08E810E94F40160E08E810E94F4017A
:1009B0008BE891E00197F1F7DF91CF910895CF9205
:1009C000DF92EF92FF920F931F93CF93DF936C010F
:1009D0007C0187E0E80EF11CD0E0C0E0062F10E0BB
:1009E000B8010C2E02C0759567950A94E2F7617004
:1009F000F70181917F010E94F4012196C430D10555
:100A000079F7C601DF91CF911F910F91FF90EF9081
:100A1000DF90CF900C94C904CF92DF92EF92FF92B7
:100A20000F931F93CF93DF93EC01F62E642F8C81ED
:100A30000E94F4018D818F3F19F060E00E94F40163
:100A40000F2D10E08F8584FF25C06E0187E0C80E52
:100A5000D11CF12CE12CB8010E2C02C075956795C4
:100A60000A94E2F76170F60181916F010E94F4012E
:100A7000FFEFEF1AFF0A88E0E816F10461F7CE01F4
:100A8000DF91CF911F910F91FF90EF90DF90CF906A
:100A90000C94C904B80184E0759567958A95E1F7CF
:100AA000CE010E94DF046F2DCE01DF91CF911F9107
:100AB0000F91FF90EF90DF90CF900C94DF0440E017
:100AC000682F8FEE93E00C940C0581E00E945F0587
:100AD0008BE39FE10197F1F70895CF93DF93823085
:100AE00029F49091FE0398609093FE038093020492
:100AF0001092030480E48093040480E18093050451
:100B000080E5809306048091F3030E946E0180913A
:100B1000F4038F3F11F00E946E018091F5030E9453
:100B20006E01CFEED3E09E012F5E33408091FE0335
:100B300084FD0AC084E090E02196281739073CF430
:100B40008E810E946E01EFCF88E090E0F5CF8BE3BD
:100B50009DE00197F1F760E08091F3030E94F401BA
:100B600060E08091F5030E94F4018091F4038F3FCF
:100B700019F060E00E94F4018091FE0384FD34C00E
:100B800063E08FEE93E00E94DF04CBE4D6E4CE0175
:100B90000197F1F763E08FEE93E00E94DF04219765
:100BA000F1F763E08FEE93E00E94DF0483E592E0CB
:100BB0000197F1F762E08FEE93E00E94DF048091ED
:100BC000FE0380620E945F0584E08093FF038CE057
:100BD0000E945F050E94650582E08093000486E024
:100BE000DF91CF910C945F0580620E945F058BE4DA
:100BF00096E40197F1F78091FE0380620E945F0501
:100C000083E592E00197F1F78091FE0380620E94F4
:100C10005F05D5CF90910204691710F06FEF690F4F
:100C2000E62FF0E0E151FC4F9489890F80680C9425
:100C30005F0541E00E940C0581E090E008951F925D
:100C40000F920FB60F9211242F933F938F939F9380
:100C5000AF93BF938091610290916202A091630271
:100C6000B09164023091600223E0230F2D3758F5D4
:100C70000196A11DB11D20936002809361029093A3
:100C80006202A0936302B093640280916502909126
:100C90006602A0916702B09168020196A11DB11D84
:100CA0008093650290936602A0936702B0936802F6
:100CB000BF91AF919F918F913F912F910F900FBE58
:100CC0000F901F90189526E8230F0296A11DB11DC5
:100CD000D2CF1F920F920FB60F9211240BB60F9224
:100CE0002F933F934F935F936F937F938F939F9334
:100CF000AF93BF93EF93FF9389E692E00E94ED02DA
:100D0000FF91EF91BF91AF919F918F917F916F91E3
:100D10005F914F913F912F910F900BBE0F900FBE9F
:100D20000F901F9018951F920F920FB60F921124DB
:100D30000BB60F922F938F939F93EF93FF93E091B6
:100D40007902F0917A028081E0917F02F091800235
:100D500082FD1DC09081809182028F5F8F732091F0
:100D60008302821741F0E0918202F0E0E759FD4FE3
:100D7000958F80938202FF91EF919F918F912F9198
:100D80000F900BBE0F900FBE0F901F901895808193
:100D9000F2CF1F920F920FB60F9211240BB60F9243
:100DA0002F933F934F935F936F937F938F939F9373
:100DB000AF93BF93EF93FF9348E251E064E271E099
:100DC00090E080E00E94B103FF91EF91BF91AF915D
:100DD0009F918F917F916F915F914F913F912F9153
:100DE0000F900BBE0F900FBE0F901F9018951F9283
:100DF0000F920FB60F9211240BB60F922F933F93C1
:100E00004F935F936F937F938F939F93AF93BF9312
:100E1000EF93FF9348EA50E064EA70E083E090E0EB
:100E20000E94B103FF91EF91BF91AF919F918F917C
:100E30007F916F915F914F913F912F910F900BBEDA
:100E40000F900FBE0F901F9018951F920F920FB624
:100E50000F9211240BB60F922F933F934F935F93F2
:100E60006F937F938F939F93AF93BF93EF93FF9372
:100E700048E950E064E970E082E090E00E94B1034C
:100E8000FF91EF91BF91AF919F918F917F916F9162
:100E90005F914F913F912F910F900BBE0F900FBE1E
:100EA0000F901F9018951F920F920FB60F9211245A
:100EB0000BB60F922F933F934F935F936F937F9354
:100EC0008F939F93AF93BF93EF93FF9348E850E0C6
:100ED00064E870E081E090E00E94B103FF91EF913F
:100EE000BF91AF919F918F917F916F915F914F9142
:100EF0003F912F910F900BBE0F900FBE0F901F9040
:100F00001895EF92FF921F93CF93DF9310926C028C
:100F100010926B0288EE93E0A0E0B0E080936D0247
:100F200090936E02A0936F02B09370028BE092E0F8
:100F300090936A028093690285EC90E09093760228
:100F40008093750284EC90E090937802809377020E
:100F500080EC90E090937A028093790281EC90E0AB
:100F600090937C0280937B0282EC90E090937E02CF
:100F700080937D0286EC90E09093800280937F02C4
:100F800010928202109283021092840210928502C3
:100F900080919603803308F0BCC091E0980F909345
:100FA00096038093070490E0FC01EE0FFF1FE80F0B
:100FB000F91FEA5FFC4F88EB9BE0928381831092DC
:100FC000F2031092F1038DE192E09093F00380938D
:100FD000EF038BE18093F3038FEF8093F4038AE1B7
:100FE0008093F50382E08093F60383E08093F70318
:100FF00084E08093F80385E08093F9031092FA036C
:101000001092FB031092FC031092FD031092FE035A
:1010100081E00E946D05C6E0D0E0D093E803C09364
:10102000E70387E090E09093EA038093E90388E088
:1010300090E09093EC038093EB0381E090E0909339
:10104000EE038093ED0386E00E946E018091E90338
:101050000E946E018091EB030E946E0161E080911D
:10106000EB030E94F401D093E803C093E703E7EA9F
:10107000F3E0119223E0E73EF207D9F7D0E0C0E0B9
:101080008091ED039091EE03C817D9070CF045C08D
:1010900040E06FE0CE010E946B048091ED039091DF
:1010A000EE03C817D9072CF447E06BE0CE010E948D
:1010B0006B0440E069E0CE010E946B048091ED0377
:1010C0009091EE03C817D907B4F4CE0123E0880F3E
:1010D000991F2A95E1F7FC01E955FC4F7F0111E0CA
:1010E000F70111927F0140E0612FCE010E946B0455
:1010F0001F5F1930A9F78091ED039091EE03C81797
:10110000D9072CF440E06CE0CE010E946B042196DC
:10111000B7CF8FEF8093070452CFDF91CF911F910C
:10112000FF90EF900895789484B5826084BD84B573
:10113000816084BD85B5826085BD85B5816085BDD2
:1011400080916E00816080936E001092810080918A
:101150008100826080938100809181008160809312
:101160008100809180008160809380008091B10037
:1011700084608093B1008091B00081608093B00062
:1011800080919100826080939100809191008160B4
:101190008093910080919000816080939000809175
:1011A000A10082608093A1008091A1008160809362
:1011B000A1008091A00081608093A0008091210116
:1011C00082608093210180912101816080932101BF
:1011D0008091200181608093200180917A00846059
:1011E00080937A0080917A00826080937A00809167
:1011F0007A00816080937A0080917A008068809381
:101200007A001092C100E0917902F0917A0282E0B6
:101210008083E0917502F09176021082E09177026E
:10122000F09178028FEC808310928102E0917D0230
:10123000F0917E0286E08083E0917B02F0917C0257
:10124000808180618083E0917B02F0917C028081CB
:1012500088608083E0917B02F0917C0280818068CD
:101260008083E0917B02F0917C0280818F7D80837E
:1012700082E00E946D0580910704803308F051C020
:1012800089E00E946E0180910704282F30E0F90167
:10129000EE0FFF1FE20FF31FEA5FFC4F9081907C7F
:1012A0009960908310920804109209042CE0622F38
:1012B0000E944A0A829FB001112430E020E0AB0175
:1012C000420F531FFA01EE0FFF1FE40FF51FEA5FF5
:1012D000FC4F908196FD17C02F5F3F4F2C3031059A
:1012E00071F7813009F0AAC01092800082E08093EB
:1012F00081001092850010928400B19A80916F0055
:10130000826080936F00E09107048E2F90E0FC01D3
:10131000EE0FFF1FE80FF91FEA5FFC4F808180642A
:10132000808386E10E946E0187E10E946E0188E160
:101330000E946E0189E10E946E010E94650588E4A9
:101340000E945F05C0E0D2E069918FEE93E00E94B9
:10135000190682E0C830D807B9F760E080E00E9443
:101360000A0661E08FEE93E00E94190660E082E0D9
:101370000E940A064AE050E065E272E08FEE93E0D8
:101380000E94790260E08DE00E940A0661E08FEE23
:1013900093E00E94190661E080E00E940A064FE097
:1013A00050E060E372E08FEE93E00E947902C8E7BC
:1013B000D1E008E312E092EFE92E91E0F92EFE0170
:1013C0008491F801C490F701D490DD20C1F381111C
:1013D0000E948D01ED2DF0E0EE0FFF1FEC5AFE4F45
:1013E000A591B4918C91C82251F30E94650560E0EB
:1013F00080E00E940A064DE050E060E472E08FEE6B
:1014000093E00E94790268EE73E080E090E00E9431
:1014100047020E94650560E080E00E940A064DE0F8
:1014200050E06EE472E08FEE93E00E94790268E88B
:1014300073E180E090E00E944702C1CF823061F406
:101440001092900080939100109295001092940059
:1014500088BB8093710057CF833069F41092A0004D
:1014600082E08093A1001092A5001092A40089BB95
:101470008093720048CF811146CF1092200182E004
:101480008093210110922501109224018ABB809340
:10149000730039CF991B79E004C0991F961708F0A3
:1014A000961B881F7A95C9F780950895EE0FFF1F48
:1014B000881F8BBF0790F691E02D1994F894FFCF09
:1014C00004160D060D1604000000000F037902A695
:1014D000025C03D702B502C90200000000190679B8
:1014E00002AE03AD034269656E76656E69646F0096
:1014F00047525020313120202020534543204100C5
:10150000496E6963696F20536573696F6E00496E38
:0C15100067726573652061706F646F0086
:00000001FF
